{
  "contractName": "FilesDBWithLibrary",
  "abi": [
    {
      "inputs": [
        {
          "internalType": "string",
          "name": "_hash",
          "type": "string"
        }
      ],
      "name": "addFileForUser",
      "outputs": [],
      "stateMutability": "nonpayable",
      "type": "function"
    },
    {
      "inputs": [],
      "name": "getFile",
      "outputs": [
        {
          "internalType": "string",
          "name": "",
          "type": "string"
        }
      ],
      "stateMutability": "view",
      "type": "function"
    },
    {
      "inputs": [
        {
          "internalType": "uint256",
          "name": "fileContentHash",
          "type": "uint256"
        },
        {
          "internalType": "string",
          "name": "timestamp",
          "type": "string"
        }
      ],
      "name": "addFileAsPending",
      "outputs": [],
      "stateMutability": "nonpayable",
      "type": "function"
    },
    {
      "inputs": [
        {
          "internalType": "uint256",
          "name": "fileContentHash",
          "type": "uint256"
        }
      ],
      "name": "getPendingFileTime",
      "outputs": [
        {
          "internalType": "string",
          "name": "",
          "type": "string"
        }
      ],
      "stateMutability": "view",
      "type": "function"
    }
  ],
  "bytecode": "0x608060405234801561001057600080fd5b506107cf806100206000396000f3fe608060405234801561001057600080fd5b506004361061004c5760003560e01c8063206ae54a146100515780632fa816921461006d57806395256cf91461008b578063c1ca5a7b146100a7575b600080fd5b61006b60048036038101906100669190610452565b6100d7565b005b610075610147565b6040516100829190610536565b60405180910390f35b6100a560048036038101906100a09190610558565b6101cc565b005b6100c160048036038101906100bc91906105a1565b610239565b6040516100ce9190610536565b60405180910390f35b73__DataStorage___________________________631a2fec30600084846040518463ffffffff1660e01b81526004016101139392919061062e565b60006040518083038186803b15801561012b57600080fd5b505af415801561013f573d6000803e3d6000fd5b505050505050565b606073__DataStorage___________________________631686154d60006040518263ffffffff1660e01b8152600401610181919061066c565b600060405180830381865af415801561019e573d6000803e3d6000fd5b505050506040513d6000823e3d601f19601f820116820180604052508101906101c791906106f7565b905090565b73__DataStorage___________________________63678a12726000836040518363ffffffff1660e01b8152600401610206929190610740565b60006040518083038186803b15801561021e57600080fd5b505af4158015610232573d6000803e3d6000fd5b5050505050565b606073__DataStorage___________________________63eaea72916000846040518363ffffffff1660e01b8152600401610275929190610770565b600060405180830381865af4158015610292573d6000803e3d6000fd5b505050506040513d6000823e3d601f19601f820116820180604052508101906102bb91906106f7565b9050919050565b6000604051905090565b600080fd5b600080fd5b6000819050919050565b6102e9816102d6565b81146102f457600080fd5b50565b600081359050610306816102e0565b92915050565b600080fd5b600080fd5b6000601f19601f8301169050919050565b7f4e487b7100000000000000000000000000000000000000000000000000000000600052604160045260246000fd5b61035f82610316565b810181811067ffffffffffffffff8211171561037e5761037d610327565b5b80604052505050565b60006103916102c2565b905061039d8282610356565b919050565b600067ffffffffffffffff8211156103bd576103bc610327565b5b6103c682610316565b9050602081019050919050565b82818337600083830152505050565b60006103f56103f0846103a2565b610387565b90508281526020810184848401111561041157610410610311565b5b61041c8482856103d3565b509392505050565b600082601f8301126104395761043861030c565b5b81356104498482602086016103e2565b91505092915050565b60008060408385031215610469576104686102cc565b5b6000610477858286016102f7565b925050602083013567ffffffffffffffff811115610498576104976102d1565b5b6104a485828601610424565b9150509250929050565b600081519050919050565b600082825260208201905092915050565b60005b838110156104e85780820151818401526020810190506104cd565b838111156104f7576000848401525b50505050565b6000610508826104ae565b61051281856104b9565b93506105228185602086016104ca565b61052b81610316565b840191505092915050565b6000602082019050818103600083015261055081846104fd565b905092915050565b60006020828403121561056e5761056d6102cc565b5b600082013567ffffffffffffffff81111561058c5761058b6102d1565b5b61059884828501610424565b91505092915050565b6000602082840312156105b7576105b66102cc565b5b60006105c5848285016102f7565b91505092915050565b8082525050565b6105de816102d6565b82525050565b600082825260208201905092915050565b6000610600826104ae565b61060a81856105e4565b935061061a8185602086016104ca565b61062381610316565b840191505092915050565b600060608201905061064360008301866105ce565b61065060208301856105d5565b818103604083015261066281846105f5565b9050949350505050565b600060208201905061068160008301846105ce565b92915050565b600061069a610695846103a2565b610387565b9050828152602081018484840111156106b6576106b5610311565b5b6106c18482856104ca565b509392505050565b600082601f8301126106de576106dd61030c565b5b81516106ee848260208601610687565b91505092915050565b60006020828403121561070d5761070c6102cc565b5b600082015167ffffffffffffffff81111561072b5761072a6102d1565b5b610737848285016106c9565b91505092915050565b600060408201905061075560008301856105ce565b818103602083015261076781846105f5565b90509392505050565b600060408201905061078560008301856105ce565b61079260208301846105d5565b939250505056fea2646970667358221220d0f013a1599e5a2e17770c44acad35128b1923823d5624cb87c9566430de703364736f6c634300080d0033",
  "immutableReferences": {},
  "source": "// SPDX-License-Identifier: MIT\r\npragma solidity >=0.4.21 <0.9.0;\r\n\r\n\r\n/*\r\n@title Library for Demo\r\n@author Nouman Ahmad\r\n@notice Not using in my contract, only for demo purpose\r\n */\r\n\r\nlibrary DataStorage {\r\n    // hold its data in the calling contract.\r\n    // saving user files and pending updates for demo purpose only\r\n    struct Data { mapping(address => string) userFiles;\r\n        mapping (uint256 => string) isPendingUpdates; }\r\n\r\n    // Note that the first parameter is of type \"storage\r\n    // reference\" and thus only its storage address\r\n    function insertFileForUser(Data storage self, string memory _hash)\r\n        public {\r\n        self.userFiles[msg.sender] = _hash;\r\n    }\r\n\r\n    // Get the file against user\r\n    function getFileForUser(Data storage self)\r\n    public view returns (string memory)\r\n    {\r\n        return self.userFiles[msg.sender];\r\n    }\r\n\r\n    // Add file as pending\r\n    function insertFileAsPending(Data storage self, uint fileContentHash, string memory timestamp)\r\n        public {\r\n        self.isPendingUpdates[fileContentHash] = timestamp;\r\n    }\r\n\r\n    // Get file from pending\r\n    function getTimeForPendingFile(Data storage self, uint fileContentHash )\r\n    public view returns (string memory)\r\n    {\r\n        return self.isPendingUpdates[fileContentHash];\r\n    }\r\n\r\n}\r\n\r\n/*\r\n@notice Contract written to interact with library for demo purpose only\r\nnot using this on front end.\r\n */\r\ncontract FilesDBWithLibrary {\r\n    DataStorage.Data dataStore ;\r\n\r\n    // Add file for user interacts with library\r\n    function addFileForUser(string memory _hash) public {\r\n        DataStorage.insertFileForUser(dataStore, _hash);\r\n    }\r\n\r\n    // Get file for user interacts with library\r\n    function getFile() public view returns(string memory) {\r\n        return DataStorage.getFileForUser(dataStore);\r\n    }\r\n\r\n    // Add file as pending with timestamp\r\n    function addFileAsPending(uint fileContentHash, string memory timestamp) public {\r\n        DataStorage.insertFileAsPending(dataStore, fileContentHash, timestamp);\r\n    }\r\n\r\n    // Get Pending file timestamp\r\n    function getPendingFileTime(uint fileContentHash) public view returns(string memory) {\r\n        return DataStorage.getTimeForPendingFile(dataStore, fileContentHash);\r\n    }\r\n}",
  "sourcePath": "/mnt/c/Users/kanye/ERC/proofofexistence-1/contracts/LibraryDemo.sol",
  "compiler": {
    "name": "solc",
    "version": "0.8.13+commit.abaa5c0e.Emscripten.clang"
  },
  "schemaVersion": "3.4.7",
  "updatedAt": "2022-04-29T22:05:34.449Z",
  "devdoc": {
    "kind": "dev",
    "methods": {},
    "version": 1
  },
  "userdoc": {
    "kind": "user",
    "methods": {},
    "version": 1
  }
}