{
  "contractName": "FilesDB",
  "abi": [
    {
      "anonymous": false,
      "inputs": [
        {
          "indexed": false,
          "internalType": "bool",
          "name": "isSaved",
          "type": "bool"
        }
      ],
      "name": "FileSavedAgainstUser",
      "type": "event"
    },
    {
      "anonymous": false,
      "inputs": [
        {
          "indexed": false,
          "internalType": "bool",
          "name": "isSaved",
          "type": "bool"
        }
      ],
      "name": "FileSavedInAllFiles",
      "type": "event"
    },
    {
      "anonymous": false,
      "inputs": [
        {
          "indexed": false,
          "internalType": "address",
          "name": "sender",
          "type": "address"
        }
      ],
      "name": "LogFallback",
      "type": "event"
    },
    {
      "anonymous": false,
      "inputs": [
        {
          "indexed": false,
          "internalType": "bool",
          "name": "isSaved",
          "type": "bool"
        }
      ],
      "name": "PendingFileHashSaved",
      "type": "event"
    },
    {
      "inputs": [],
      "name": "toggleStopped",
      "outputs": [],
      "stateMutability": "nonpayable",
      "type": "function"
    },
    {
      "inputs": [
        {
          "internalType": "uint256",
          "name": "_hash",
          "type": "uint256"
        }
      ],
      "name": "checkIfFileIsPending",
      "outputs": [
        {
          "internalType": "string",
          "name": "",
          "type": "string"
        }
      ],
      "stateMutability": "view",
      "type": "function"
    },
    {
      "inputs": [
        {
          "internalType": "uint256",
          "name": "_hash",
          "type": "uint256"
        },
        {
          "internalType": "string",
          "name": "timestamp",
          "type": "string"
        }
      ],
      "name": "addFileHashPending",
      "outputs": [],
      "stateMutability": "payable",
      "type": "function"
    },
    {
      "inputs": [
        {
          "internalType": "uint256",
          "name": "_hash",
          "type": "uint256"
        }
      ],
      "name": "getFileFromHash",
      "outputs": [
        {
          "internalType": "address",
          "name": "",
          "type": "address"
        },
        {
          "internalType": "string",
          "name": "",
          "type": "string"
        },
        {
          "internalType": "string",
          "name": "",
          "type": "string"
        },
        {
          "internalType": "string",
          "name": "",
          "type": "string"
        }
      ],
      "stateMutability": "view",
      "type": "function"
    },
    {
      "inputs": [
        {
          "internalType": "uint256",
          "name": "fileHash",
          "type": "uint256"
        },
        {
          "internalType": "string",
          "name": "_hash",
          "type": "string"
        },
        {
          "internalType": "string",
          "name": "_timestamp",
          "type": "string"
        },
        {
          "internalType": "string",
          "name": "_tags",
          "type": "string"
        }
      ],
      "name": "addFileInAllFiles",
      "outputs": [],
      "stateMutability": "payable",
      "type": "function"
    },
    {
      "inputs": [],
      "name": "getIsStopped",
      "outputs": [
        {
          "internalType": "bool",
          "name": "",
          "type": "bool"
        }
      ],
      "stateMutability": "view",
      "type": "function"
    },
    {
      "inputs": [
        {
          "internalType": "string",
          "name": "ipfsHash",
          "type": "string"
        }
      ],
      "name": "addFileForUser",
      "outputs": [],
      "stateMutability": "payable",
      "type": "function"
    },
    {
      "inputs": [],
      "name": "getFileForUser",
      "outputs": [
        {
          "internalType": "string",
          "name": "",
          "type": "string"
        }
      ],
      "stateMutability": "view",
      "type": "function"
    }
  ],
  "bytecode": "0x608060405234801561001057600080fd5b506114ec806100206000396000f3fe60806040526004361061007b5760003560e01c8063a846238e1161004e578063a846238e1461012f578063c66e71bd1461014b578063dd45ad1914610167578063f3c6c9f2146101a75761007b565b8063858094ed14610080578063874e250d146100ab57806395256cf9146100d6578063a3ac1a1d146100f2575b600080fd5b34801561008c57600080fd5b506100956101be565b6040516100a29190610c53565b60405180910390f35b3480156100b757600080fd5b506100c06101d4565b6040516100cd9190610d07565b60405180910390f35b6100f060048036038101906100eb9190610e72565b6102a3565b005b3480156100fe57600080fd5b5061011960048036038101906101149190610ef1565b6103cc565b6040516101269190610d07565b60405180910390f35b61014960048036038101906101449190610f1e565b6104c7565b005b61016560048036038101906101609190610fd9565b610711565b005b34801561017357600080fd5b5061018e60048036038101906101899190610ef1565b610852565b60405161019e9493929190611076565b60405180910390f35b3480156101b357600080fd5b506101bc610adb565b005b60008060149054906101000a900460ff16905090565b6060600260003373ffffffffffffffffffffffffffffffffffffffff1673ffffffffffffffffffffffffffffffffffffffff1681526020019081526020016000208054610220906110ff565b80601f016020809104026020016040519081016040528092919081815260200182805461024c906110ff565b80156102995780601f1061026e57610100808354040283529160200191610299565b820191906000526020600020905b81548152906001019060200180831161027c57829003601f168201915b5050505050905090565b60011515600060149054906101000a900460ff161515036102f9576040517f08c379a00000000000000000000000000000000000000000000000000000000081526004016102f09061117c565b60405180910390fd5b600081510361033d576040517f08c379a0000000000000000000000000000000000000000000000000000000008152600401610334906111e8565b60405180910390fd5b80600260003373ffffffffffffffffffffffffffffffffffffffff1673ffffffffffffffffffffffffffffffffffffffff1681526020019081526020016000209080519060200190610390929190610b95565b507fce12e23e7d2338d6b9ca7fc685311291a48fc861a48b94fea819bdc33d13ef1f60016040516103c19190610c53565b60405180910390a150565b606060011515600060149054906101000a900460ff16151503610424576040517f08c379a000000000000000000000000000000000000000000000000000000000815260040161041b9061117c565b60405180910390fd5b600360008381526020019081526020016000208054610442906110ff565b80601f016020809104026020016040519081016040528092919081815260200182805461046e906110ff565b80156104bb5780601f10610490576101008083540402835291602001916104bb565b820191906000526020600020905b81548152906001019060200180831161049e57829003601f168201915b50505050509050919050565b60011515600060149054906101000a900460ff1615150361051d576040517f08c379a00000000000000000000000000000000000000000000000000000000081526004016105149061117c565b60405180910390fd5b60008403610560576040517f08c379a000000000000000000000000000000000000000000000000000000000815260040161055790611254565b60405180910390fd5b60008351036105a4576040517f08c379a000000000000000000000000000000000000000000000000000000000815260040161059b906112c0565b60405180910390fd5b60008251036105e8576040517f08c379a00000000000000000000000000000000000000000000000000000000081526004016105df9061132c565b60405180910390fd5b60405180608001604052803373ffffffffffffffffffffffffffffffffffffffff168152602001838152602001828152602001848152506001600086815260200190815260200160002060008201518160000160006101000a81548173ffffffffffffffffffffffffffffffffffffffff021916908373ffffffffffffffffffffffffffffffffffffffff1602179055506020820151816001019080519060200190610695929190610b95565b5060408201518160020190805190602001906106b2929190610b95565b5060608201518160030190805190602001906106cf929190610b95565b509050507ffe4f6ba5787016e2d96e9e09a7a09dd2bfeb352a21adedf8617e477f6142ad8260016040516107039190610c53565b60405180910390a150505050565b60011515600060149054906101000a900460ff16151503610767576040517f08c379a000000000000000000000000000000000000000000000000000000000815260040161075e9061117c565b60405180910390fd5b600082116107aa576040517f08c379a00000000000000000000000000000000000000000000000000000000081526004016107a190611398565b60405180910390fd5b60008151036107ee576040517f08c379a00000000000000000000000000000000000000000000000000000000081526004016107e590611404565b60405180910390fd5b80600360008481526020019081526020016000209080519060200190610815929190610b95565b507ff708726aeb5b3dac3432b177d9fb7a266716d0e983edc3f1127ba39113d6676f60016040516108469190610c53565b60405180910390a15050565b6000606080606060011515600060149054906101000a900460ff161515036108af576040517f08c379a00000000000000000000000000000000000000000000000000000000081526004016108a69061117c565b60405180910390fd5b6001600086815260200190815260200160002060000160009054906101000a900473ffffffffffffffffffffffffffffffffffffffff16600160008781526020019081526020016000206001016001600088815260200190815260200160002060020160016000898152602001908152602001600020600301828054610934906110ff565b80601f0160208091040260200160405190810160405280929190818152602001828054610960906110ff565b80156109ad5780601f10610982576101008083540402835291602001916109ad565b820191906000526020600020905b81548152906001019060200180831161099057829003601f168201915b505050505092508180546109c0906110ff565b80601f01602080910402602001604051908101604052809291908181526020018280546109ec906110ff565b8015610a395780601f10610a0e57610100808354040283529160200191610a39565b820191906000526020600020905b815481529060010190602001808311610a1c57829003601f168201915b50505050509150808054610a4c906110ff565b80601f0160208091040260200160405190810160405280929190818152602001828054610a78906110ff565b8015610ac55780601f10610a9a57610100808354040283529160200191610ac5565b820191906000526020600020905b815481529060010190602001808311610aa857829003601f168201915b5050505050905093509350935093509193509193565b3373ffffffffffffffffffffffffffffffffffffffff1660008054906101000a900473ffffffffffffffffffffffffffffffffffffffff1673ffffffffffffffffffffffffffffffffffffffff1614610b69576040517f08c379a0000000000000000000000000000000000000000000000000000000008152600401610b6090611496565b60405180910390fd5b600060149054906101000a900460ff1615600060146101000a81548160ff021916908315150217905550565b828054610ba1906110ff565b90600052602060002090601f016020900481019282610bc35760008555610c0a565b82601f10610bdc57805160ff1916838001178555610c0a565b82800160010185558215610c0a579182015b82811115610c09578251825591602001919060010190610bee565b5b509050610c179190610c1b565b5090565b5b80821115610c34576000816000905550600101610c1c565b5090565b60008115159050919050565b610c4d81610c38565b82525050565b6000602082019050610c686000830184610c44565b92915050565b600081519050919050565b600082825260208201905092915050565b60005b83811015610ca8578082015181840152602081019050610c8d565b83811115610cb7576000848401525b50505050565b6000601f19601f8301169050919050565b6000610cd982610c6e565b610ce38185610c79565b9350610cf3818560208601610c8a565b610cfc81610cbd565b840191505092915050565b60006020820190508181036000830152610d218184610cce565b905092915050565b6000604051905090565b600080fd5b600080fd5b600080fd5b600080fd5b7f4e487b7100000000000000000000000000000000000000000000000000000000600052604160045260246000fd5b610d7f82610cbd565b810181811067ffffffffffffffff82111715610d9e57610d9d610d47565b5b80604052505050565b6000610db1610d29565b9050610dbd8282610d76565b919050565b600067ffffffffffffffff821115610ddd57610ddc610d47565b5b610de682610cbd565b9050602081019050919050565b82818337600083830152505050565b6000610e15610e1084610dc2565b610da7565b905082815260208101848484011115610e3157610e30610d42565b5b610e3c848285610df3565b509392505050565b600082601f830112610e5957610e58610d3d565b5b8135610e69848260208601610e02565b91505092915050565b600060208284031215610e8857610e87610d33565b5b600082013567ffffffffffffffff811115610ea657610ea5610d38565b5b610eb284828501610e44565b91505092915050565b6000819050919050565b610ece81610ebb565b8114610ed957600080fd5b50565b600081359050610eeb81610ec5565b92915050565b600060208284031215610f0757610f06610d33565b5b6000610f1584828501610edc565b91505092915050565b60008060008060808587031215610f3857610f37610d33565b5b6000610f4687828801610edc565b945050602085013567ffffffffffffffff811115610f6757610f66610d38565b5b610f7387828801610e44565b935050604085013567ffffffffffffffff811115610f9457610f93610d38565b5b610fa087828801610e44565b925050606085013567ffffffffffffffff811115610fc157610fc0610d38565b5b610fcd87828801610e44565b91505092959194509250565b60008060408385031215610ff057610fef610d33565b5b6000610ffe85828601610edc565b925050602083013567ffffffffffffffff81111561101f5761101e610d38565b5b61102b85828601610e44565b9150509250929050565b600073ffffffffffffffffffffffffffffffffffffffff82169050919050565b600061106082611035565b9050919050565b61107081611055565b82525050565b600060808201905061108b6000830187611067565b818103602083015261109d8186610cce565b905081810360408301526110b18185610cce565b905081810360608301526110c58184610cce565b905095945050505050565b7f4e487b7100000000000000000000000000000000000000000000000000000000600052602260045260246000fd5b6000600282049050600182168061111757607f821691505b60208210810361112a576111296110d0565b5b50919050565b7f4e6f7420616374697665207269676874206e6f77000000000000000000000000600082015250565b6000611166601483610c79565b915061117182611130565b602082019050919050565b6000602082019050818103600083015261119581611159565b9050919050565b7f43616e6e6f7420626520656d7074790000000000000000000000000000000000600082015250565b60006111d2600f83610c79565b91506111dd8261119c565b602082019050919050565b60006020820190508181036000830152611201816111c5565b9050919050565b7f46696c6520686173682063616e6e6f7420626520656d70747900000000000000600082015250565b600061123e601983610c79565b915061124982611208565b602082019050919050565b6000602082019050818103600083015261126d81611231565b9050919050565b7f4970667320686173682063616e6e6f7420626520656d70747900000000000000600082015250565b60006112aa601983610c79565b91506112b582611274565b602082019050919050565b600060208201905081810360008301526112d98161129d565b9050919050565b7f54696d657374616d702063616e6e6f7420626520656d70747900000000000000600082015250565b6000611316601983610c79565b9150611321826112e0565b602082019050919050565b6000602082019050818103600083015261134581611309565b9050919050565b7f20686173682063616e6e6f7420626520656d7074792000000000000000000000600082015250565b6000611382601683610c79565b915061138d8261134c565b602082019050919050565b600060208201905081810360008301526113b181611375565b9050919050565b7f2054696d657374616d702063616e6e6f7420626520656d707479000000000000600082015250565b60006113ee601a83610c79565b91506113f9826113b8565b602082019050919050565b6000602082019050818103600083015261141d816113e1565b9050919050565b7f596f7520617265206e6f74206f776e6572206f66207468697320636f6e74726160008201527f63742e0000000000000000000000000000000000000000000000000000000000602082015250565b6000611480602383610c79565b915061148b82611424565b604082019050919050565b600060208201905081810360008301526114af81611473565b905091905056fea2646970667358221220bc222b76c533a1278f60525c9b4eefa86cd78e78c19ee4b9c2c17ee3093c9b0664736f6c634300080d0033",
  "immutableReferences": {},
  "source": "// SPDX-License-Identifier: MIT\npragma solidity >=0.4.21 <0.9.0;\nimport  './Owner.sol';\n\n/*\n@title Save the Files Record\n@author Nouman Ahmad\n@notice You can use this contract for saving the files. Also it inherits owner contract\n */\ncontract FilesDB is Owner {\n\n    // This struct is used for saving the file detail against their content hash\n    struct File {\n        address user;\n        string timestamp;\n        string tags;\n        string ipfsHash;\n    }\n\n    // Used when file hash is saved as pending\n    event PendingFileHashSaved(bool isSaved);\n    // Used when files record is saved against User\n    event FileSavedAgainstUser(bool isSaved);\n    // Used when file hash is saved in all files\n    event FileSavedInAllFiles(bool isSaved);\n    // Used when fallback function is invoked\n    event LogFallback(address sender);\n    // For Stopping the contract : Helps us implementing circuit breaker design pattern.\n    bool private isStopped;\n    // Saves the data for all files\n    mapping (uint256 => File) private allFiles;\n    // Save the user record of files against address\n    mapping(address => string) private userFiles;\n    // Save the file in pending\n    mapping (uint256 => string) private isPendingUpdates;\n\n\n\n    /*\n    @author Nouman Ahmad\n    @notice Constructor for this contract . Also initializes owner contract\n    */\n    /*constructor() Owner(msg.sender) public {\n\n     }*/\n\n    /*\n    @author Nouman Ahmad\n    @notice Check if contract is active\n     */\n    modifier isActive {\n        require(isStopped != true, \"Not active right now\");\n        _;\n    }\n\n    /*\n    @author Nouman Ahmad\n    @notice This modifier is used when contract is stopped and you have to run anything\n    @dev circuit breaker design pattern implementation\n     */\n    modifier onlyWhenStopped {\n        require(isStopped, \"Not stopped right now\");\n        _;\n    }\n\n    /*\n    @author Nouman Ahmad\n    @notice Toggle the state of contract to stopped or Active\n    @dev This function is using modifier isAdmin which checks if user calling this is owner or not\n     */\n    function toggleStopped() public isAdmin {\n        isStopped = !isStopped;\n    }\n\n    /*\n    @author Nouman Ahmad\n    @notice Check if file trying to upload is in pending list, if it is in pending list returns the timestamp\n    @param _hash Hash of the file\n    @return timestamp in string\n     */\n    function checkIfFileIsPending(uint256 _hash) public isActive view returns(string memory ){\n        return isPendingUpdates[_hash];\n    }\n\n    /*\n    @author Nouman Ahmad\n    @notice Saves the file in pending: emit the event file saved in pending state\n    @param _hash Hash of the file content\n    @param timestamp Timestamp of the file\n     */\n    function addFileHashPending(uint256 _hash, string memory timestamp) public isActive payable{\n        require(_hash > 0, \" hash cannot be empty \");\n        require(bytes(timestamp).length != 0, \" Timestamp cannot be empty\");\n        isPendingUpdates[_hash] = timestamp;\n        emit PendingFileHashSaved(true);\n    }\n\n    /*\n    @author Nouman Ahmad\n    @notice Return the file details saved in contract.\n    @dev Return the details, saved as struct\n    @param _hash Hash of the file\n    @return address of the uploader of file\n    @return timestamp of uploaded file\n    @return tags of the file\n    @return IPFS hash of file\n     */\n    function getFileFromHash(uint256 _hash) public isActive view returns(address , string memory, string memory, string memory) {\n        return( allFiles[_hash].user, allFiles[_hash].timestamp, allFiles[_hash].tags, allFiles[_hash].ipfsHash);\n    }\n\n    /*\n    @author Nouman Ahmad\n    @notice Add the file in all files: emit the event file saved in all files\n    @param fileHash Hash of content of file\n    @param _hash ipfs hash of file\n    @param _timestamp timestamp of file\n    @param _tags tags of the file\n    */\n    function addFileInAllFiles(uint256 fileHash, string memory _hash, string memory _timestamp, string memory _tags)\n        public isActive payable{\n        require(fileHash != 0, \"File hash cannot be empty\");\n        require(bytes(_hash).length != 0, \"Ipfs hash cannot be empty\");\n        require(bytes(_timestamp).length != 0, \"Timestamp cannot be empty\");\n            allFiles[fileHash] = File({\n                user: msg.sender,\n                timestamp: _timestamp,\n                tags: _tags,\n                ipfsHash: _hash\n            });\n\n        emit FileSavedInAllFiles(true);\n    }\n\n    /*\n    @author Nouman Ahmad\n    @notice Get the is stopped variable\n    @return boolean variable is stopped\n     */\n    function getIsStopped() public view returns(bool) {\n        return isStopped;\n    }\n\n    /*\n    @author Nouman Ahmad\n    @notice Add ipfs hash against user: emit file saved success\n    @dev Files for user are saved in Json file,  which is uploaded at IPFS.\n    @param ipfsHash hash of file in json\n     */\n    function addFileForUser(string memory ipfsHash) public isActive payable{\n        require(bytes(ipfsHash).length != 0, \"Cannot be empty\");\n        userFiles[msg.sender] = ipfsHash;\n        emit FileSavedAgainstUser(true);\n    }\n\n    /*\n    @author Nouman Ahmad\n    @notice Get the file hash of user\n    @dev Files saved in json file and uploaded at IPFS. Helps retreiving the ipfs\n    @return ipfs hash of file\n     */\n    function getFileForUser() public view returns(string memory) {\n        return userFiles[msg.sender];\n    }\n\n\n    /*\n    @author Nouman Ahmad\n    @notice Fallback function\n     \n    function() external {\n        require(msg.data.length == 0, \"Message Length is not zero\");\n        emit LogFallback(msg.sender);\n    }\n*/\n}",
  "sourcePath": "/mnt/c/Users/kanye/ERC/proofofexistence-1/contracts/FilesDB.sol",
  "compiler": {
    "name": "solc",
    "version": "0.8.13+commit.abaa5c0e.Emscripten.clang"
  },
  "schemaVersion": "3.4.7",
  "updatedAt": "2022-04-29T22:17:22.017Z",
  "devdoc": {
    "kind": "dev",
    "methods": {},
    "version": 1
  },
  "userdoc": {
    "kind": "user",
    "methods": {},
    "version": 1
  }
}